:0E0000000C944B000C9400000C9400000C9427
:10000E0000000C9400000C9400000C9400000C9462
:10001E0000000C9400000C9400000C9400000C9452
:10002E0000000C9478000C9400000C9400000C94CA
:10003E0000000C9400000C9400000C9400000C9432
:10004E0000000C9400001027E80364000A00010071
:10005E00001000011000010054656D70726574751A
:10006E007265203D200001002D4E414E00494E4646
:10007E00000080C00E00600266000100880274005D
:10008E0002008C0280000000F894EE27ECBBF1E039
:10009E00FBBFEBBFE5BF8DE0A2E0BB27ED938A95DA
:1000AE00E9F780E098E0A0E6ED930197E9F7E2E842
:1000BE00F0E085919591009761F0A591B59105902D
:1000CE001590BF01F00105900D920197E1F7FB012C
:1000DE00F0CFEFE5EDBFE8E0EEBFC0E6D2E00C9466
:1000EE00F6000A921A92FA926A937A938A939A93E4
:1000FE00AA93BA93EA93FA93EFB7EA93809905C05D
:10010E00EFB1AEE6B2E00E941F03819905C0EFB1D8
:10011E00A2E7B2E00E941F03E0917202F091730217
:10012E006091740270917502A0916E02B0916F028F
:10013E0080917002909171020E945004DF01CB01F8
:10014E00E0E0F0E060E070E40E94EE04E0937602FE
:10015E00F093770260937802709379020E942703DE
:10016E000E9430030E944802A0E6B2E00E9475028F
:10017E00AEE7B2E00E9475020E942703A0E0B0E055
:10018E0088EC91E40E94A004DF01CB01E0E0F0ECEA
:10019E006FE074E40E943803DF01CB01E0E0F0E091
:1001AE0068EC72E40E94EE04E0937A02F0937B0214
:1001BE0060937C0270937D020E943D030E94300387
:1001CE007798E991EFBFF991E991B991A991999138
:1001DE00899179916991F990199009901895A0E1FA
:1001EE000E949702E0E0E1BBE0E4E7BBEFEFE4BB87
:1001FE00E1EEEDB978940E9446030E9491052CF42D
:10020E000E944F030E94330508F00FC0E1E0E5BBEA
:10021E000E943D030E945503E0E0E5BB0E944F03A0
:10022E000E9449040E94550309C00E944F030E9478
:10023E00330510F0E1E001C0E0E0E5BBDCCFFFCF1D
:10024E00BA93AA932497E0E0E883E983EA83EFE385
:10025E00EB831A930A93EB85FC85EF3FAFEFFA071A
:10026E0039F40E946003A6E7B0E00E94CA02B5C04E
:10027E00EF3FAFE7FA0739F40E946003A7E7B0E05B
:10028E000E94CA02AAC0AC85AA2362F4E985FA8547
:10029E006B857C850E94AA030E9465030E946A03F7
:1002AE00EDE2EC93A885A73010F0E6E0E88718851C
:1002BE00E12F1150E03039F00E9471030E94760355
:1002CE000E947D03F5CF0E9482030E9450040E947B
:1002DE00650310E0E0E0F0E060E87FE30E947D035C
:1002EE000E9482030E94330588F00E9471030E94CF
:1002FE008B030E947D031F5F173238F00E9460034C
:10030E00ABE7B0E00E94CA0268C0EACF103029F411
:10031E000E946A03E0E3EC9331C0E12F1150E0300C
:10032E0069F10E9471030E947603A0E0B0E080E0C4
:10033E009FE30E945004DF01CB010E9408030E943C
:10034E007D030E9482030E94EE040E94DD030E2FA5
:10035E000E946A03E02FE05DEC93E02FF0E00E9434
:10036E0071030E9461050E9416040E94A0040E945F
:10037E0092030E9438030E946503CFCFE885E030D8
:10038E0041F10E946A03EEE2EC93E885E150E887C2
:10039E00EF5FF9F00E9492030E948B030E946503A7
:1003AE00E985FA856B857C850E94DD030E2F0E9400
:1003BE006A03E02FE05DEC93E02FF0E00E949203E1
:1003CE000E9461050E9416040E9438030E94650374
:1003DE00DCCFAE81BF81E0E0EC93198108812D96D0
:1003EE000895FFE0FA95F1F70895AAB3AF70AABB8E
:1003FE00D99AD898F6DFDA9AF4DFA9B3DA98F1DF52
:10040E00DA9AEFDFDA98A7FDF5CF0895A07FAB2B30
:10041E00ABBBDA9A0E94F801DA980E94F8010895AF
:10042E00AA93D998AAB3A76FAABBBBB3BF70A88172
:10043E00EDDFA881A295EADFD99A0C94C802DA9A68
:10044E000E94F801E9B3DA980E94F801E07F08955E
:10045E000E94F801F4DFAE2FF2DFD998E295EA2B75
:10046E000895AA930E94FC01E881F0E0E457FD4F45
:10047E00E081A981AE0F0E94170259804880229612
:10048E0008950E94FC01A2E00E9417020E94FC0146
:10049E00ACE00E9417020E94FC01A1E00E9417022C
:1004AE00E0E04E2E5E2E0895AA93EF93FF93A8815F
:1004BE006894AA3019F0E894571430F04394E0E0B1
:1004CE00EA93A42DCEDF36F053948FDFD89AA8810D
:1004DE000E941702FF91EF910C94C802BA93AA934F
:1004EE001A93A981BA81ED91A983BA831E2FE030A8
:1004FE0019F0A12FD9DFF5CF188123960895AA27D9
:10050E00BB271197F1F70895AA93D998AAB3A76FAD
:10051E00AABBBBB3BF70A8810E940D02D99A31C08D
:10052E00AA93DA98D8987880E881E058E0938E0202
:10053E00E881E054E0938F020E9497030E94970394
:10054E000E949703DCDFA0E2DFDFD9DFA8E20E9482
:10055E009C03A4E00E949C03A5E80E949C03AAB3FE
:10056E00AF70AABBD99A0E942F02E53011F0E0E0DD
:10057E0008C00E94FC01A6E00E9417020E944802D9
:10058E00E1E021960895BA93AA93E991F991A99180
:10059E00B991CD0105900D920020E1F7FC0108956F
:1005AE000E947F057B816A81F981E88177FB770F55
:1005BE0067FD7160972F9E5781F078F0983190F417
:1005CE00AA27BB27882708948795B795A7959A954C
:1005DE00D1F7EA23FB23682305C0E8947727EE279B
:1005EE00FF2766276F77769508F4606877F9A991EB
:1005FE00B99189919991EA17FB076807790797FBDB
:10060E0008950E947F050E9470050E94D7020E94E5
:10061E00750519F40E946B0509C0E6F70E946B057B
:10062E00A0E0B0E080E89FE30E944904249608957C
:10063E00FF27662777270E9416040E9466050895F5
:10064E00E0917602F09177026091780270917902D2
:10065E0008950E947A05E3E0EA93AEE7B2E00C94C7
:10066E0027010E9484050E9449040895E0917A02B0
:10067E00F0917B0260917C0270917D020895A091B1
:10068E007A02B0917B0280917C0290917D02089556
:10069E00F6DFE0E0F0E060E87FE30895A0E0B0E090
:1006AE0088E492E40E94A0040E94DD03DF010C9412
:1006BE00A003EE81FF81FA93EA930895E987FA8702
:1006CE006B877C870895AE81BF811196AE83BF8301
:1006DE0011970895AA81BB818C819D810895EDECBF
:1006EE00FCEC6CEC7DE30E94A0040895EA83FB838E
:1006FE006C837D830895EA81FB816C817D81A98560
:10070E00BA858B859C850895E0E0F0E060E271E4A7
:10071E000E94A0040895A985BA858B859C850895AD
:10072E000E948602A0E30C948B020E9417020C9486
:10073E008602109639F08AEF90E00197F1F7A895AE
:10074E001197C9F7089530976040704009F07058BE
:10075E000895552342F4503811F4E0FF04C0319649
:10076E00691F791F6BF050E8572711F45F93CFC0C4
:10077E005F3F31F0660F000C57956795752F089502
:10078E005F9300200AF0CFC0C8C050E8192E152282
:10079E00880F991F9527550F879550E8072E05222C
:1007AE00660F771F7527550F67950895689401C0DA
:1007BE00E8945F93F2DF703818F07F3F08F4A7C01B
:1007CE0056E1571BAAF4519558300EF4593030F0BB
:1007DE00EFEFFFEF6FEF7FE777F91AC0772755231B
:1007EE00B9F0EE0FFF1F661F771F5A95D1F710C095
:1007FE007727583028F0EF2FF62F672F5850F9CF64
:10080E00552331F076956795F795E7955A95D1F77B
:10081E0000200AF441D15F910895689401C0E894D4
:10082E00309760407040B1F0002426F0772312F428
:10083E00009432D1172E7EE1112032F07A95EE0F10
:10084E00FF1F661F111CF9CFEF2FF62F612D5F933F
:10085E008ADF5F9108954F93AF01FD01DA01AB017D
:10086E00BC01CA01402D012C142E4F910895EA0FA0
:10087E00FB1F681F0895E095F0956095EF5FFF4FA1
:10088E006F4F08955F9381DF903871F150E8152610
:10089E0004C05F937ADF903839F1703821F1572F09
:1008AE00591B2BF112F4D7DFFACF583118F0AA27C3
:1008BE00BB278827583028F0AB2FB82F88275850E1
:1008CE00F9CF552329F08695B795A7955A95D9F75F
:1008DE00502D512572F0CBDF38F46795F795E795DB
:1008EE00739513F420C0B7DF3EDF5F910895D8F7FC
:1008FE00FBCFEA1BFB0B680B51F010F40094BBDF2F
:10090E00662392F3EE0FFF1F661F7A95CBF7EE2745
:10091E00FF27662777275F910895EFEFFFEF6FE7C9
:10092E007FEF5F910895EFEFFFEF6FE77FE75F9146
:10093E0008955F932ADF703851F3903841F3012404
:10094E000894791F23F41CF300203AF3ECCF0F9296
:10095E001F932F933F934F93112722279927689F19
:10096E00A0018F9F302D410D591F6B9F300D411DE2
:10097E00591F8E9F27D0BF9F25D06A9F23D0BE9F21
:10098E001DD0AF9F1BD0AE9F110D291F391F491FC0
:10099E00591FE32FF42F652F522F4F913F912F9117
:1009AE001F910F9066232AF0550FEE1FFF1F661F33
:1009BE0002C073954BF2CDDE5F910895100D211D8F
:1009CE00391F02C0200D311D491F591F08955F9315
:1009DE00DCDE703821F411200AF49FCFA4CF9038BA
:1009EE0009F495CF01240894970B1BF4D4F300203F
:1009FE00F3CF792F1F932F933F934F9311241127EA
:100A0E00222733274427552790E2AE17BF078607C4
:100A1E00410730F0AE1BBF0B860B410B089401C093
:100A2E008894551F221F331F111CAA1FBB1F881F1E
:100A3E00441F9A9551F7F901612D4F913F912F91D6
:100A4E001F91662332F0550FEE1FFF1F661F7A951A
:100A5E0043F27FDE5F91089599239AF0772342F057
:100A6E00971748F029F4AE17BF07860720F031F02C
:100A7E009894889408959894089408951894889456
:100A8E0008957723C2F7971798F3A9F7EA17FB078C
:100A9E00680788F399F3ECCFF09560957095E19522
:100AAE00FF4F6F4F7F4F0895FE2FFF0FFF0B6F2FDE
:100ABE007F2F08956F2F660F660B762F0895ED9397
:100ACE00FD936D937C930895E881F9816A817B8112
:100ADE000895A881B9818A819B810895E883F9835D
:100AEE006A837B8308957A936A93FA93EA930895BF
:100AFE009A938A93BA93AA930895182E862F612DEE
:100B0E00192E972F712D1B2EBF2FF12D1A2EAE2FB2
:100B1E00E12D089500240A160B060806090608950D
:00000001FF
