:080000000C944B000C9400006D
:100008000C9400000C9400000C9400000C94000068
:100018000C9400000C9400000C9400000C94000058
:100028000C9400000C9400000C9400000C94000048
:100038000C9400000C9400000C9400000C94000038
:100048000C9400000C9400000C9400001027E803A6
:1000580064000A000100001000011000010054654E
:100068006D70726574757265203D200001002D4E1B
:10007800414E00494E46000080C00E0060026600F6
:100088000100800274000200840280000000F894DD
:10009800EE27ECBBF1E0FBBFEBBFE5BF8DE0A2E0D4
:1000A800BB27ED938A95E9F780E098E0A0E6ED9309
:1000B8000197E9F7E2E8F0E085919591009761F002
:1000C800A591B59105901590BF01F00105900D928D
:1000D8000197E1F7FB01F0CFEFE5EDBFE8E0EEBFF8
:1000E800C0E6D2E00C948700AA93E881E064E7B9FF
:1000F80083E08A95F1F7369A349BFECF349AE4B1BF
:10010800F5B10C947B02A0E10E944A02E0EBE7BB48
:10011800C49AE0E4E7B9E3E8E6B9E0E0EABBEBBBA0
:100128000E94D2020E94E2020E94D202E09372026E
:10013800F093730260937402709375020E94EB024D
:10014800A0916E02B0916F0280917002909171023D
:100158000E941F0569F1B09BFECFE1E7EDB90E944F
:10016800EB020E9476035E2EC4985FB8779BFECFA1
:10017800E0E0EDB9AAE0B0E00E943903C49A0E9419
:10018800FB01A0E6B2E00E9428020E94EB020E9456
:100198000805E0E0EA93A6E7B2E00E94DE00A6E7E1
:1001A800B2E00E9428020E94EB020E94E202C6CF3F
:1001B800BBCFFFCFBA93AA932497E0E0E883E98303
:1001C800EA83EFE3EB831A930A93EB85FC85EF3F11
:1001D800AFEFFA0739F40E94F402A6E7B0E00E94F4
:1001E800C502B1C0EF3FAFE7FA0739F40E94F40245
:1001F800A7E7B0E00E94C502A6C0AC85AA2362F4B6
:10020800E985FA856B857C850E9443030E94F90283
:100218000E94FE02EDE2EC93A885A73010F0E6E01C
:10022800E8871885E12F1150E03039F00E94050366
:100238000E940A030E941103F5CF0E9416030E9430
:10024800E9030E94F90210E0E0E0F0E060E87FE3F3
:100258000E9411030E9416030E94CC0488F00E9499
:1002680005030E941F030E9411031F5F173238F015
:100278000E94F402ABE7B0E00E94C50264C0EACF76
:10028800103029F40E94FE02E0E3EC932FC0E12F26
:100298001150E03059F10E9405030E940A03A0E0C2
:1002A800B0E080E09FE30E94E903DF01CB010E94F8
:1002B800AE020E9411030E9416030E9487040E9446
:1002C80076030E2F0E94FE02E02FE05DEC93E02FF4
:1002D800F0E00E9405030E94F4040E94AF030E940C
:1002E80039040E9426030E942B03D1CFE885E03011
:1002F80031F10E94FE02EEE2EC93E885E150E887D6
:10030800EF5FE9F00E9426030E941F030E94F90292
:10031800E985FA856B857C850E9476030E2F0E94FD
:10032800FE02E02FE05DEC93E02FF0E00E94260350
:100338000E94F4040E94AF030E942B03DECFAE811B
:10034800BF81E0E0EC93198108812D960895FFE0C4
:10035800FA95F1F70895A4B3AF70A4BBA99AA89829
:10036800F6DFAA9AF4DFA3B3AA98F1DFAA9AEFDF1F
:10037800AA98A7FDF5CF0895A07FAB2BA5BBAA9A95
:100388000E94AB01AA980E94AB010895AA93A9986C
:10039800A4B3A76FA4BBB5B3BF70A881EDDFA881D4
:1003A800A295EADFA99A0C947B02AA9A0E94AB0153
:1003B800E3B3AA980E94AB01E07F08950E94AB01C5
:1003C800F4DFAE2FF2DFA998E295EA2B0895AA93FD
:1003D8000E94AF01E881F0E0EC57FD4FE081A98170
:1003E800AE0F0E94CA0149807880229608950E9423
:1003F800AF01A2E00E94CA010E94AF01ACE00E94D6
:10040800CA010E94AF01A1E00E94CA01E0E07E2E6D
:100418004E2E0895AA93EF93FF93A8816894AA306B
:1004280019F0E894461430F07394E0E0EA93A72DAD
:10043800CEDF36F043948FDFA89AA8810E94CA01C4
:10044800FF91EF910C947B02BA93AA931A93A98116
:10045800BA81ED91A983BA831E2FE03019F0A12F3C
:10046800D9DFF5CF188123960895AA27BB271197BE
:10047800F1F70895AA93A998A4B3A76FA4BBB5B33D
:10048800BF70A8810E94C001A99A31C0AA93AA98F6
:10049800A8986880E881E058E0938602E881E054F3
:1004A800E09387020E9430030E9430030E943003C9
:1004B800DCDFA0E2DFDFD9DFA8E20E943503A4E099
:1004C8000E943503A5E80E943503A4B3AF70A4BB0E
:1004D800A99A0E94E201E53011F0E0E008C00E940C
:1004E800AF01A6E00E94CA010E94FB01E1E021964B
:1004F80008950E940D057B816A81F981E88177FB67
:10050800770F67FD7160972F9E5781F078F09831CB
:1005180090F4AA27BB27882708948795B795A795AD
:100528009A95D1F7EA23FB23682305C0E894772737
:10053800EE27FF2766276F77769508F4606877F9C6
:10054800A991B99189919991EA17FB0768077907E9
:1005580097FB08950E940D050E94FE040E947D02EB
:100568000E94030519F40E94F90409C0E6F70E94E5
:10057800F904A0E0B0E080E89FE30E94E20324963B
:100588000895BA93AA93E991F991A991B991CD01E6
:1005980005900D920020E1F7FC010895A0E00E946B
:1005A8007800662777270E94AF03DF01CB01E6E4D6
:1005B800F6EB63E070E40E9487040895E0936E020E
:1005C800F0936F0260937002709371020895E09146
:1005D8007202F0917302609174027091750208952D
:1005E800EE81FF81FA93EA930895E987FA876B878A
:1005F8007C870895AE81BF811196AE83BF83119722
:100608000895AA81BB818C819D810895EDECFCEC55
:100618006CEC7DE30E9439040895EA83FB836C83C4
:100628007D830895EA81FB816C817D81A985BA85E6
:100638008B859C850895E0E0F0E060E271E40E941B
:1006480039040895A985BA858B859C8508950E94EB
:1006580012050E94E203C9CF0E943902A0E30C945C
:100668003E020E94CA010C943902109639F08AEFB2
:1006780090E00197F1F7A8951197C9F70895309779
:100688006040704009F070580895552342F450387E
:1006980011F4E0FF04C03196691F791F6BF050E830
:1006A800572711F45F93CFC05F3F31F0660F000CFE
:1006B80057956795752F08955F9300200AF0CFC06E
:1006C800C8C050E8192E1522880F991F9527550F75
:1006D800879550E8072E0522660F771F7527550F57
:1006E80067950895689401C0E8945F93F2DF7038C5
:1006F80018F07F3F08F4A7C056E1571BAAF451959C
:1007080058300EF4593030F0EFEFFFEF6FEF7FE71E
:1007180077F91AC077275523B9F0EE0FFF1F661F28
:10072800771F5A95D1F710C07727583028F0EF2F48
:10073800F62F672F5850F9CF552331F076956795E6
:10074800F795E7955A95D1F700200AF441D15F91C2
:100758000895689401C0E894309760407040B1F003
:10076800002426F0772312F4009432D1172E7EE16C
:10077800112032F07A95EE0FFF1F661F111CF9CF7A
:10078800EF2FF62F612D5F938ADF5F9108954F93C6
:10079800AF01FD01DA01AB01BC01CA01402D012CFA
:1007A800142E4F910895EA0FFB1F681F0895E095D6
:1007B800F0956095EF5FFF4F6F4F08955F9381DF6E
:1007C800903871F150E8152604C05F937ADF9038AD
:1007D80039F1703821F1572F591B2BF112F4D7DF5B
:1007E800FACF583118F0AA27BB278827583028F0A5
:1007F800AB2FB82F88275850F9CF552329F0869565
:10080800B795A7955A95D9F7502D512572F0CBDF9A
:1008180038F46795F795E795739513F420C0B7DF1B
:100828003EDF5F910895D8F7FBCFEA1BFB0B680BFF
:1008380051F010F40094BBDF662392F3EE0FFF1F14
:10084800661F7A95CBF7EE27FF27662777275F91F4
:100858000895EFEFFFEF6FE77FEF5F910895EFEFF8
:10086800FFEF6FE77FE75F9108955F932ADF7038A6
:1008780051F3903841F301240894791F23F41CF3B1
:1008880000203AF3ECCF0F921F932F933F934F938F
:10089800112722279927689FA0018F9F302D410D8E
:1008A800591F6B9F300D411D591F8E9F27D0BF9F29
:1008B80025D06A9F23D0BE9F1DD0AF9F1BD0AE9F6F
:1008C800110D291F391F491F591FE32FF42F652FB9
:1008D800522F4F913F912F911F910F9066232AF02D
:1008E800550FEE1FFF1F661F02C073954BF2CDDE3A
:1008F8005F910895100D211D391F02C0200D311D73
:10090800491F591F08955F93DCDE703821F41120C8
:100918000AF49FCFA4CF903809F495CF0124089406
:10092800970B1BF4D4F30020F3CF792F1F932F9349
:100938003F934F9311241127222733274427552704
:1009480090E2AE17BF078607410730F0AE1BBF0B1A
:10095800860B410B089401C08894551F221F331F32
:10096800111CAA1FBB1F881F441F9A9551F7F90134
:10097800612D4F913F912F911F91662332F0550FB2
:10098800EE1FFF1F661F7A9543F27FDE5F91089581
:1009980099239AF0772342F0971748F029F4AE1775
:1009A800BF07860720F031F09894889408959894AA
:1009B800089408951894889408957723C2F7971790
:1009C80098F3A9F7EA17FB07680788F399F3ECCFC0
:1009D800F09560957095E195FF4F6F4F7F4F0895A3
:1009E8006F2F660F660B762F0895E881F9816A816B
:1009F8007B810895A881B9818A819B810895E883C4
:100A0800F9836A837B8308957A936A93FA93EA93C6
:100A180008959A938A93BA93AA930895182E862FC5
:100A2800612D192E972F712D1B2EBF2FF12D1A2EE8
:100A3800AE2FE12D0895EA17FB0768077907089597
:00000001FF
