:100000000C943D000C9400000C9400000C94000033
:100010000C9400000C9400000C9400000C94000060
:100020000C9400000C9400000C9400000C94000050
:100030000C9400000C9400000C9400000C94000040
:100040000C9400000C9400000C9400000C94000030
:100050000C9400001027E80364000A00010000105F
:1000600000011000010001002D4E414E00494E4696
:1000700000000100640266000000F894EE27ECBB6B
:10008000F1E0FBBFEBBFE5BF8DE0A2E0BB27ED9346
:100090008A95E9F780E098E0A0E6ED930197E9F70B
:1000A000E2E7F0E085919591009761F0A591B59117
:1000B00005901590BF01F00105900D920197E1F7B1
:1000C000FB01F0CFEFE5EDBFE8E0EEBFC0E6D2E028
:1000D0000C946A00E8E0EAB9E6E8E0BDE0E0E0BDE3
:1000E000E7E4E9B9E0E0E7BB46B255245A924A9208
:1000F000A0E6B2E00E948600A0E6B2E00E94BB004B
:10010000A4EFB1E00E94CE00EFCFFFCFBA93AA9345
:10011000A991B991E991F99130962AF4E095F09579
:1001200031966DE26D93E89480E197E20DD088EE10
:1001300093E00AD084E6992707D08AE005D06E2F95
:1001400010D066276C9308956627E817F90720F00A
:100150006395E81BF90BC9F7662311F416F00895AF
:100160006894605D6D930895AA935D9BFECFE881CE
:10017000ECB921960895BA93AA931A93A981BA81EA
:10018000ED91A983BA831E2FE03019F0A12FECDF87
:10019000F5CFAAE0E9DF188123960895109639F08B
:1001A00080ED97E00197F1F7A8951197C9F70895A9
:00000001FF
