:0C0000000C944F000C9400000C940000C5
:10000C000C9400000C9400000C9400000C94000064
:10001C000C9400000C9400000C9400000C94000054
:10002C000C9400000C947C000C9400000C940000C8
:10003C000C9400000C9400000C9400000C94000034
:10004C000C9400000C9400001027E80364000A00D4
:10005C00010000100001100001006D7974656D70D5
:10006C00203D200020443D20000001002D4E414E3B
:10007C0000494E46000080C00A0060026600050080
:10008C006A02700001008902760002008D02820073
:10009C000000F894EE27ECBBF1E0FBBFEBBFE5BF33
:1000AC008DE0A2E0BB27ED938A95E9F780E098E01C
:1000BC00A0E6ED930197E9F7E4E8F0E085919591DE
:1000CC00009761F0A591B59105901590BF01F001D5
:1000DC0005900D920197E1F7FB01F0CFEFE5EDBF35
:1000EC00E8E0EEBFC0E6D2E00C9402010A921A924C
:1000FC00FA926A937A938A939A93AA93BA93EA930D
:10010C00FA93EFB7EA93809905C0EFB1AFE6B2E08E
:10011C000E942F03819905C0EFB1A3E7B2E00E94C2
:10012C002F03E0917302F09174026091750270914B
:10013C007602A0916F02B091700280917102909141
:10014C0072020E945F04DF01CB01E0E0F0E060E0AE
:10015C0070E40E94FD04E0937702F09378026093C0
:10016C00790270937A020E9437030E9440030E9426
:10017C005802A0E6B2E00E948502AFE7B2E00E940E
:10018C0085020E943703A0E0B0E088EC91E40E9465
:10019C00AF04DF01CB01E0E0F0EC6FE074E40E940F
:1001AC004803DF01CB01E0E0F0E068EC72E40E9470
:1001BC00FD04E0937B02F0937C0260937D027093CC
:1001CC007E02AAE6B2E00E9485020E944D030E94C4
:1001DC004003AFE7B2E00E9485027798E991EFBF48
:1001EC00F991E991B991A991999189917991699133
:1001FC00F990199009901895A0E10E94A702E0E0EF
:10020C00E1BBE0E4E7BBEFEFE4BBE1EEEDB97894E2
:10021C000E9456030E945F030E94420528F40E942C
:10022C0056030E94A0050CF011C0E1E0E5BB0E9452
:10023C004D030E946403E0E0E5BB0E9456030E945C
:10024C005F030E9458040E9464030BC00E94560373
:10025C000E945F030E94420510F0E1E001C0E0E063
:10026C00E5BBD6CFFFCFBA93AA932497E0E0E883FF
:10027C00E983EA83EFE3EB831A930A93EB85FC851E
:10028C00EF3FAFEFFA0739F40E946F03A8E7B0E035
:10029C000E94DA02B3C0EF3FAFE7FA0739F40E94CD
:1002AC006F03A9E7B0E00E94DA02A8C0AC85AA23CC
:1002BC0062F4E985FA856B857C850E94B9030E94FE
:1002CC0074030E947903EDE2EC93A885A73010F03B
:1002DC00E6E0E8871885E12F1150E03039F00E94F4
:1002EC0080030E9485030E948C03F5CF0E9491032A
:1002FC000E945F040E94740310E00E945F030E943E
:10030C008C030E9491030E94420588F00E94800396
:10031C000E949A030E948C031F5F173238F00E94D0
:10032C006F03ADE7B0E00E94DA0268C0EACF10308C
:10033C0029F40E947903E0E3EC9331C0E12F1150D2
:10034C00E03069F10E9480030E948503A0E0B0E0D8
:10035C0080E09FE30E945F04DF01CB010E94180341
:10036C000E948C030E9491030E94FD040E94EC03E6
:10037C000E2F0E947903E02FE05DEC93E02FF0E06C
:10038C000E9480030E9470050E9425040E94AF0405
:10039C000E94A1030E9448030E947403CFCFE885FA
:1003AC00E03041F10E947903EEE2EC93E885E150F4
:1003BC00E887EF5FF9F00E94A1030E949A030E9464
:1003CC007403E985FA856B857C850E94EC030E2FFE
:1003DC000E947903E02FE05DEC93E02FF0E00E94A7
:1003EC00A1030E9470050E9425040E9448030E94EC
:1003FC007403DCCFAE81BF81E0E0EC9319810881FE
:10040C002D960895FFE0FA95F1F70895AAB3AF7011
:10041C00AABBD99AD898F6DFDA9AF4DFA9B3DA989E
:10042C00F1DFDA9AEFDFDA98A7FDF5CF0895A07F18
:10043C00AB2BABBBDA9A0E940802DA980E94080236
:10044C000895AA93D998AAB3A76FAABBBBB3BF70E0
:10045C00A881EDDFA881A295EADFD99A0C94D80285
:10046C00DA9A0E940802E9B3DA980E940802E07F47
:10047C0008950E940802F4DFAE2FF2DFD998E295BE
:10048C00EA2B0895AA930E940C02E881F0E0E3574E
:10049C00FD4FE081A981AE0F0E9427025980488050
:1004AC00229608950E940C02A2E00E9427020E944C
:1004BC000C02ACE00E9427020E940C02A1E00E94F8
:1004CC002702E0E04E2E5E2E0895AA93EF93FF9341
:1004DC00A8816894AA3019F0E894571430F043942A
:1004EC00E0E0EA93A42DCEDF36F053948FDFD89A58
:1004FC00A8810E942702FF91EF910C94D802BA9325
:10050C00AA931A93A981BA81ED91A983BA831E2F5C
:10051C00E03019F0A12FD9DFF5CF1881239608957B
:10052C00AA27BB271197F1F70895AA93D998AAB3D4
:10053C00A76FAABBBBB3BF70A8810E941D02D99A3A
:10054C0031C0AA93DA98D8987880E881E058E09383
:10055C008F02E881E054E09390020E94A6030E946F
:10056C00A6030E94A603DCDFA0E2DFDFD9DFA8E24E
:10057C000E94AB03A4E00E94AB03A5E80E94AB036E
:10058C00AAB3AF70AABBD99A0E943F02E53011F012
:10059C00E0E008C00E940C02A6E00E9427020E9424
:1005AC005802E1E021960895BA93AA93E991F99142
:1005BC00A991B991CD0105900D920020E1F7FC01B4
:1005CC0008950E948E057B816A81F981E88177FB11
:1005DC00770F67FD7160972F9E5781F078F09831F7
:1005EC0090F4AA27BB27882708948795B795A795D9
:1005FC009A95D1F7EA23FB23682305C0E894772763
:10060C00EE27FF2766276F77769508F4606877F9F1
:10061C00A991B99189919991EA17FB076807790714
:10062C0097FB08950E948E050E947F050E94E702A9
:10063C000E94840519F40E947A0509C0E6F70E940D
:10064C007A05A0E0B0E080E89FE30E94580424966D
:10065C000895FF27662777270E9425040E947505B9
:10066C000895E0917702F09178026091790270918F
:10067C007A0208950E948905E3E0EA93AFE7B2E0BD
:10068C000C9439010E9493050E9458040895E0913E
:10069C007B02F0917C0260917D0270917E02089544
:1006AC00A0917B02B0917C0280917D0290917E02A0
:1006BC000895E0E0F0E060E87FE30895A0E0B0E0AA
:1006CC0088E492E40E94AF040E94EC03DF010C94D6
:1006DC00AF03EE81FF81FA93EA930895E987FA87D5
:1006EC006B877C870895AE81BF811196AE83BF83E3
:1006FC0011970895AA81BB818C819D810895EDECA1
:10070C00FCEC6CEC7DE30E94AF040895EA83FB8360
:10071C006C837D830895EA81FB816C817D81A98541
:10072C00BA858B859C850895E0E0F0E060E271E489
:10073C000E94AF040895A985BA858B859C85089580
:10074C000E949602A0E30C949B020E9427020C9438
:10075C009602109639F08AEF90E00197F1F7A89580
:10076C001197C9F7089530976040704009F07058A0
:10077C000895552342F4503811F4E0FF04C031962B
:10078C00691F791F6BF050E8572711F45F93CFC0A6
:10079C005F3F31F0660F000C57956795752F0895E4
:1007AC005F9300200AF0CFC0C8C050E8192E152264
:1007BC00880F991F9527550F879550E8072E05220E
:1007CC00660F771F7527550F67950895689401C0BC
:1007DC00E8945F93F2DF703818F07F3F08F4A7C0FD
:1007EC0056E1571BAAF4519558300EF4593030F09D
:1007FC00EFEFFFEF6FEF7FE777F91AC077275523FD
:10080C00B9F0EE0FFF1F661F771F5A95D1F710C076
:10081C007727583028F0EF2FF62F672F5850F9CF45
:10082C00552331F076956795F795E7955A95D1F75D
:10083C0000200AF441D15F910895689401C0E894B6
:10084C00309760407040B1F0002426F0772312F40A
:10085C00009432D1172E7EE1112032F07A95EE0FF2
:10086C00FF1F661F111CF9CFEF2FF62F612D5F9321
:10087C008ADF5F9108954F93AF01FD01DA01AB015F
:10088C00BC01CA01402D012C142E4F910895EA0F82
:10089C00FB1F681F0895E095F0956095EF5FFF4F83
:1008AC006F4F08955F9381DF903871F150E81526F2
:1008BC0004C05F937ADF903839F1703821F1572FEB
:1008CC00591B2BF112F4D7DFFACF583118F0AA27A5
:1008DC00BB278827583028F0AB2FB82F88275850C3
:1008EC00F9CF552329F08695B795A7955A95D9F741
:1008FC00502D512572F0CBDF38F46795F795E795BD
:10090C00739513F420C0B7DF3EDF5F910895D8F7DD
:10091C00FBCFEA1BFB0B680B51F010F40094BBDF10
:10092C00662392F3EE0FFF1F661F7A95CBF7EE2727
:10093C00FF27662777275F910895EFEFFFEF6FE7AB
:10094C007FEF5F910895EFEFFFEF6FE77FE75F9128
:10095C0008955F932ADF703851F3903841F30124E6
:10096C000894791F23F41CF300203AF3ECCF0F9278
:10097C001F932F933F934F93112722279927689FFB
:10098C00A0018F9F302D410D591F6B9F300D411DC4
:10099C00591F8E9F27D0BF9F25D06A9F23D0BE9F03
:1009AC001DD0AF9F1BD0AE9F110D291F391F491FA2
:1009BC00591FE32FF42F652F522F4F913F912F91F9
:1009CC001F910F9066232AF0550FEE1FFF1F661F15
:1009DC0002C073954BF2CDDE5F910895100D211D71
:1009EC00391F02C0200D311D491F591F08955F93F7
:1009FC00DCDE703821F411200AF49FCFA4CF90389C
:100A0C0009F495CF01240894970B1BF4D4F3002020
:100A1C00F3CF792F1F932F933F934F9311241127CB
:100A2C00222733274427552790E2AE17BF078607A6
:100A3C00410730F0AE1BBF0B860B410B089401C075
:100A4C008894551F221F331F111CAA1FBB1F881F00
:100A5C00441F9A9551F7F901612D4F913F912F91B8
:100A6C001F91662332F0550FEE1FFF1F661F7A95FC
:100A7C0043F27FDE5F91089599239AF0772342F039
:100A8C00971748F029F4AE17BF07860720F031F00E
:100A9C009894889408959894089408951894889438
:100AAC0008957723C2F7971798F3A9F7EA17FB076E
:100ABC00680788F399F3ECCFF09560957095E19504
:100ACC00FF4F6F4F7F4F0895FE2FFF0FFF0B6F2FC0
:100ADC007F2F08956F2F660F660B762F0895ED9379
:100AEC00FD936D937C930895E881F9816A817B81F4
:100AFC000895A881B9818A819B810895E883F9833F
:100B0C006A837B8308957A936A93FA93EA930895A0
:100B1C009A938A93BA93AA930895182E862F612DCF
:100B2C00192E972F712D1B2EBF2FF12D1A2EAE2F94
:100B3C00E12D089500240A160B06080609060895EF
:00000001FF
