:100000000C943D000C9400000C9400000C94000033
:100010000C9400000C9400000C9400000C94000060
:100020000C9400000C9400000C9400000C94000050
:100030000C9400000C9400000C9400000C94000040
:100040000C9400000C9400000C9400000C94000030
:100050000C9400001027E80364000A00010000105F
:1000600000011000010001002D4E414E00494E4696
:10007000000001006A0266000000F894EE27ECBB65
:10008000F1E0FBBFEBBFE5BF8DE0A2E0BB27ED9346
:100090008A95E9F780E098E0A0E6ED930197E9F70B
:1000A000E2E7F0E085919591009761F0A591B59117
:1000B00005901590BF01F00105900D920197E1F7B1
:1000C000FB01F0CFEFE5EDBFE8E0EEBFC0E6D2E028
:1000D0000C947900AA93E881E064E7B985E28A95F7
:1000E000F1F7369A349BFECF349AE4B1F5B10C9413
:1000F0007C01E8E0EAB9E6E8E0BDE7E4E9B9E0E080
:10010000E0BDE0E8E8B9E0E4E7B9E3E8E6B9E0E05B
:10011000EABBEBBB899AA0E0DDDF2F0166277727DA
:100120000E949802A8E4B1EE8AEF9EE30E942203A7
:100130000E94F103E0E0EA93A0E6B2E00E94AA0088
:10014000A0E6B2E00E947E01A2E3B0E00E9422029B
:10015000E2CFFFCFBA93AA932497E0E0E883E98344
:10016000EA83EFE3EB831A930A93EB85FC85EF3F79
:10017000AFEFFA0739F40E94E601A8E6B0E00E946A
:10018000D901B1C0EF3FAFE7FA0739F40E94E601A9
:10019000A9E6B0E00E94D901A6C0AC85AA2362F40A
:1001A000E985FA856B857C850E942C020E94EB0113
:1001B0000E94F001EDE2EC93A885A73010F0E6E094
:1001C000E8871885E12F1150E03039F00E94F701DF
:1001D0000E94FC010E940302F5CF0E9408020E94C7
:1001E000D2020E94EB0110E0E0E0F0E060E87FE383
:1001F0000E9403020E9408020E94B50388F00E9438
:10020000F7010E9411020E9403021F5F173238F0AB
:100210000E94E601ADE6B0E00E94D90164C0EACFD9
:10022000103029F40E94F001E0E3EC932FC0E12F9D
:100230001150E03059F10E94F7010E94FC01A0E04A
:10024000B0E080E09FE30E94D202DF01CB010E9478
:10025000C2010E9403020E9408020E9470030E94D1
:100260005F020E2F0E94F001E02FE05DEC93E02F83
:10027000F0E00E94F7010E94DD030E9498020E94B4
:1002800022030E9418020E941D02D1CFE885E030AF
:1002900031F10E94F001EEE2EC93E885E150E8874D
:1002A000EF5FE9F00E9418020E9411020E94EB0128
:1002B000E985FA856B857C850E945F020E2F0E947E
:1002C000F001E02FE05DEC93E02FF0E00E941802D7
:1002D0000E94DD030E9498020E941D02DECFAE81C3
:1002E000BF81E0E0EC93198108812D960895AA93CF
:1002F0005D9BFECFE881ECB921960895BA93AA934D
:100300001A93A981BA81ED91A983BA831E2FE03097
:1003100019F0A12FECDFF5CFAAE0E9DF18812396D1
:1003200008950E94F6037B816A81F981E88177FB59
:10033000770F67FD7160972F9E5781F078F09831A5
:1003400090F4AA27BB27882708948795B795A79587
:100350009A95D1F7EA23FB23682305C0E894772711
:10036000EE27FF2766276F77769508F4606877F9A0
:10037000A991B99189919991EA17FB0768077907C3
:1003800097FB08950E94F6030E94E7030E949101E3
:100390000E94EC0319F40E94E20309C0E6F70E94F0
:1003A000E203A0E0B0E080E89FE30E94CB02249645
:1003B0000895BA93AA93E991F991A991B991CD01C0
:1003C00005900D920020E1F7FC010895EE81FF8178
:1003D000FA93EA930895E987FA876B877C870895F3
:1003E000AE81BF811196AE83BF8311970895AA8114
:1003F000BB818C819D810895EDECFCEC6CEC7DE380
:100400000E9422030895EA83FB836C837D83089511
:10041000EA81FB816C817D81A985BA858B859C856C
:100420000895E0E0F0E060E271E40E9422030895A4
:10043000A985BA858B859C8508950E94FB030E943F
:10044000CB02C9CF109639F08DEC9AE00197F1F705
:10045000A8951197C9F7089530976040704009F04A
:1004600070580895552342F4503811F4E0FF04C049
:100470003196691F791F6BF050E8572711F45F938D
:10048000CFC05F3F31F0660F000C57956795752F11
:1004900008955F9300200AF0CFC0C8C050E8192E1D
:1004A0001522880F991F9527550F879550E8072E1D
:1004B0000522660F771F7527550F67950895689475
:1004C00001C0E8945F93F2DF703818F07F3F08F4C2
:1004D000A7C056E1571BAAF4519558300EF4593075
:1004E00030F0EFEFFFEF6FEF7FE777F91AC0772774
:1004F0005523B9F0EE0FFF1F661F771F5A95D1F7EE
:1005000010C07727583028F0EF2FF62F672F58505C
:10051000F9CF552331F076956795F795E7955A957C
:10052000D1F700200AF441D15F910895689401C089
:10053000E894309760407040B1F0002426F07723B3
:1005400012F4009432D1172E7EE1112032F07A9508
:10055000EE0FFF1F661F111CF9CFEF2FF62F612D35
:100560005F938ADF5F9108954F93AF01FD01DA0138
:10057000AB01BC01CA01402D012C142E4F910895EE
:10058000EA0FFB1F681F0895E095F0956095EF5FF7
:10059000FF4F6F4F08955F9381DF903871F150E8FE
:1005A000152604C05F937ADF903839F1703821F155
:1005B000572F591B2BF112F4D7DFFACF583118F00F
:1005C000AA27BB278827583028F0AB2FB82F8827B9
:1005D0005850F9CF552329F08695B795A7955A9588
:1005E000D9F7502D512572F0CBDF38F46795F79588
:1005F000E795739513F420C0B7DF3EDF5F91089550
:10060000D8F7FBCFEA1BFB0B680B51F010F40094FA
:10061000BBDF662392F3EE0FFF1F661F7A95CBF7C1
:10062000EE27FF27662777275F910895EFEFFFEF0B
:100630006FE77FEF5F910895EFEFFFEF6FE77FE7E1
:100640005F9108955F932ADF703851F3903841F33A
:1006500001240894791F23F41CF300203AF3ECCF13
:100660000F921F932F933F934F9311272227992780
:10067000689FA0018F9F302D410D591F6B9F300D3A
:10068000411D591F8E9F27D0BF9F25D06A9F23D021
:10069000BE9F1DD0AF9F1BD0AE9F110D291F391FCC
:1006A000491F591FE32FF42F652F522F4F913F9170
:1006B0002F911F910F9066232AF0550FEE1FFF1FF9
:1006C000661F02C073954BF2CDDE5F910895100D49
:1006D000211D391F02C0200D311D491F591F0895CA
:1006E0005F93DCDE703821F411200AF49FCFA4CF91
:1006F000903809F495CF01240894970B1BF4D4F398
:100700000020F3CF792F1F932F933F934F93112402
:100710001127222733274427552790E2AE17BF071A
:100720008607410730F0AE1BBF0B860B410B0894C8
:1007300001C08894551F221F331F111CAA1FBB1F05
:10074000881F441F9A9551F7F901612D4F913F91F0
:100750002F911F91662332F0550FEE1FFF1F661F6A
:100760007A9543F27FDE5F91089599239AF077237B
:1007700042F0971748F029F4AE17BF07860720F01C
:1007800031F0989488940895989408940895189452
:10079000889408957723C2F7971798F3A9F7EA1773
:1007A000FB07680788F399F3ECCFF0956095709597
:1007B000E195FF4F6F4F7F4F08956F2F660F660BC8
:1007C000762F0895E881F9816A817B810895A88157
:1007D000B9818A819B810895E883F9836A837B8349
:1007E00008957A936A93FA93EA9308959A938A9371
:1007F000BA93AA930895182E862F612D192E972F3C
:10080000712D1B2EBF2FF12D1A2EAE2FE12D089525
:00000001FF
