:080000000C943D000C9400007B
:100008000C9400000C9400000C9400000C94000068
:100018000C9400000C9400000C9400000C94000058
:100028000C9400000C9400000C9400000C94000048
:100038000C9400000C9400000C9400000C94000038
:100048000C9400000C9400000C9400001027E803A6
:1000580064000A0001000010000110000100010006
:100068002D4E414E00494E460000010076026600C2
:100078000000F894EE27ECBBF1E0FBBFEBBFE5BF57
:100088008DE0A2E0BB27ED938A95E9F780E098E040
:10009800A0E6ED930197E9F7E2E7F0E08591959105
:1000A800009761F0A591B59105901590BF01F001F9
:1000B80005900D920197E1F7FB01F0CFEFE5EDBF59
:1000C800E8E0EEBFC0E6D2E00C946A008898EFEF53
:1000D800E4BBE0E1EAB9E6E8E0BDE7E4E9B9E0E07D
:1000E800E0BD0E942702E0936002F09361026093F2
:1000F8006202709363020E943302A0E0B0E088ECD1
:1001080091E40E948103DF01CB01E0E0F0EC6FE0B5
:1001180074E40E9446040E942A03DF01CB01E0E058
:10012800F0E068EC72E40E94CF03E0936402F0937D
:10013800650260936602709367020E942702E0934B
:100148006802F093690260936A0270936B020E94DE
:100158003302A0916802B091690280916A0290917D
:100168006B020E94590451F50E943C020E945304FC
:100178002CF40E9445020E94140408F015C0E1E026
:10018800E5BBE0916402F0916502609166027091AE
:1001980067020E944B02E0E0E5BB0E9445020E9414
:1001A8002A030E944B0209C00E9445020E941404BF
:1001B80010F0E1E001C0E0E0E5BBBFCF92CFFFCF98
:1001C8005F9BFECFECB10895BA93AA930E945E0498
:1001D8000E811F8128853985002E012AD9F0F0DF8C
:1001E8005E2F583051F4AE81BF810A171B0720F4E7
:1001F800215030400F5F1F4FF2CF5A3059F03F93D4
:100208002F932F5F3F4FE52FAF91BF91EC93015094
:100218001040E2CFD901E0E0EC93E885F9850E942F
:1002280065042A960895BA93AA932A970E945E04B1
:10023800E0E0E887E987EA87EB87A889B989EC9144
:100248005E2FAE2F0E941C02E03031F0E889F98958
:100258003196E88BF98BF1CFE0E0EF835B3221F048
:100268005D3239F4E1E0EF83E889F9893196E88B6A
:10027800F98BE0E04E2F5E2F08891989A889B98982
:10028800AC910E941302E03049F4A889B989AC9175
:10029800EEE20E9441045E2FE03039F0452BE889F8
:1002A800F9893196E88BF98BE9CF2889398940306B
:1002B80029F1E889F9893197E88BF98BA889B989F7
:1002C800AC91AE32D9F0A889B989EC91F0E0F097F9
:1002D8000E9456020E943C040E94F7020E943103C9
:1002E800DF01CB010E945B020E94CF030E946002E3
:1002F800E889F9893197E88BF98BE0CF0E9465028C
:10030800A889B9891197A88BB98BA017B107A0F054
:10031800EC91F0E0F0970E946E020E943C040E946B
:10032800F7020E9481030E9456020E9431030E9434
:1003380060020E947302E4CFD9012F5F3F4F5C91A6
:10034800553619F0553409F057C0E0E04E2FEE83CA
:10035800D9015C915B3221F05D3221F4E1E0EE835A
:100368002F5F3F4FD9012F5F3F4FEC915E2FAE2F8C
:100378000E941302E03039F0AAE04A02F001E50FCA
:10038800E0534E2FEFCF473268F0EF81E03029F08D
:10039800EFEFFFEF6FE77FEF3EC0EFEFFFEF6FE7A5
:1003A8007FE739C050E20E946502503089F00E9410
:1003B8007C020E946E020E948103EC87FD876E8793
:1003C8007F87E42FE52311F00E9473025695EDCF45
:1003D800EE81E03039F00E947C020E9456020E94B1
:1003E800CF0306C00E947C020E9456020E9481032D
:1003F800E887F9876A877B87EF81E03041F0E885F5
:10040800F9856A857B850E948B020E946002E885D7
:10041800F9856A857B850E94650462960895AA938A
:10042800E1E0F991F03310F0FA3308F0EE2708957F
:10043800AA93E1E0F991F03229F0F93010F0FE309A
:1004480008F0EE270895ECE6F2E0FA93EA93AAE0C2
:10045800B0E00E94E800ACE6B2E00C941701E0912D
:100468006002F091610260916202709163020895E6
:10047800A0916402B0916502809166029091670232
:100488000895F6DFE0E0F0E060E87FE30895A0E09B
:10049800B0E088E492E40E9481030E94BE02DF017A
:1004A8000C948102A885B9858A859B850895E0E02A
:1004B800F0E060E271E40895E887F9876A877B874E
:1004C8000895E0E0F0E060E87FE3EC87FD876E8761
:1004D8007F870895AC85BD858E859F850895FADF51
:1004E800E6DF0E948103EC87FD876E877F8708958A
:1004F800EC85FD856E857F850895109639F080ED31
:1005080097E00197F1F7A8951197C9F708953097E3
:100518006040704009F070580895552342F45038EF
:1005280011F4E0FF04C03196691F791F6BF050E8A1
:10053800572711F45F93CFC05F3F31F0660F000C6F
:1005480057956795752F08955F9300200AF0CFC0DF
:10055800C8C050E8192E1522880F991F9527550FE6
:10056800879550E8072E0522660F771F7527550FC8
:1005780067950895689401C0E8945F93F2DF703836
:1005880018F07F3F08F4A7C056E1571BAAF451950D
:1005980058300EF4593030F0EFEFFFEF6FEF7FE790
:1005A80077F91AC077275523B9F0EE0FFF1F661F9A
:1005B800771F5A95D1F710C07727583028F0EF2FBA
:1005C800F62F672F5850F9CF552331F07695679558
:1005D800F795E7955A95D1F700200AF441D15F9134
:1005E8000895689401C0E894309760407040B1F075
:1005F800002426F0772312F4009432D1172E7EE1DE
:10060800112032F07A95EE0FFF1F661F111CF9CFEB
:10061800EF2FF62F612D5F938ADF5F9108954F9337
:10062800AF01FD01DA01AB01BC01CA01402D012C6B
:10063800142E4F910895EA0FFB1F681F0895E09547
:10064800F0956095EF5FFF4F6F4F08955F9381DFDF
:10065800903871F150E8152604C05F937ADF90381E
:1006680039F1703821F1572F591B2BF112F4D7DFCC
:10067800FACF583118F0AA27BB278827583028F016
:10068800AB2FB82F88275850F9CF552329F08695D6
:10069800B795A7955A95D9F7502D512572F0CBDF0C
:1006A80038F46795F795E795739513F420C0B7DF8D
:1006B8003EDF5F910895D8F7FBCFEA1BFB0B680B71
:1006C80051F010F40094BBDF662392F3EE0FFF1F86
:1006D800661F7A95CBF7EE27FF27662777275F9166
:1006E8000895EFEFFFEF6FE77FEF5F910895EFEF6A
:1006F800FFEF6FE77FE75F9108955F932ADF703818
:1007080051F3903841F301240894791F23F41CF322
:1007180000203AF3ECCF0F921F932F933F934F9300
:10072800112722279927689FA0018F9F302D410DFF
:10073800591F6B9F300D411D591F8E9F27D0BF9F9A
:1007480025D06A9F23D0BE9F1DD0AF9F1BD0AE9FE0
:10075800110D291F391F491F591FE32FF42F652F2A
:10076800522F4F913F912F911F910F9066232AF09E
:10077800550FEE1FFF1F661F02C073954BF2CDDEAB
:100788005F910895100D211D391F02C0200D311DE4
:10079800491F591F08955F93DCDE703821F411203A
:1007A8000AF49FCFA4CF903809F495CF0124089478
:1007B800970B1BF4D4F30020F3CF792F1F932F93BB
:1007C8003F934F9311241127222733274427552776
:1007D80090E2AE17BF078607410730F0AE1BBF0B8C
:1007E800860B410B089401C08894551F221F331FA4
:1007F800111CAA1FBB1F881F441F9A9551F7F901A6
:10080800612D4F913F912F911F91662332F0550F23
:10081800EE1FFF1F661F7A9543F27FDE5F910895F2
:1008280099239AF0772342F0971748F029F4AE17E6
:10083800BF07860720F031F098948894089598941B
:10084800089408951894889408957723C2F7971701
:1008580098F3A9F7EA17FB07680788F399F3ECCF31
:10086800F09560957095E195FF4F6F4F7F4F089514
:100878006F2F660F660B762F0895EA17E1E009F0EF
:10088800EE270895182E862F612D192E972F712D7A
:100898001B2EBF2FF12D1A2EAE2FE12D0895002407
:1008A8000A160B06080609060895EA17FB076807E3
:1008B800790708955A934A933A932A931A930A9375
:1008C80008955D814C813B812A81198108810895B1
:00000001FF
