:040000000C943D001F
:100004000C9400000C9400000C9400000C9400006C
:100014000C9400000C9400000C9400000C9400005C
:100024000C9400000C9400000C9400000C9400004C
:100034000C9400000C9400000C9400000C9400003C
:100044000C9400000C9400000C9400000C9400002C
:100054001027E80364000A000100001000011000EA
:10006400010001002D4E414E00494E4600000100A2
:100074006A0266000000F894EE27ECBBF1E0FBBFD7
:10008400EBBFE5BF8DE0A2E0BB27ED938A95E9F7CE
:1000940080E098E0A0E6ED930197E9F7E2E7F0E06D
:1000A40085919591009761F0A591B5910590159072
:1000B400BF01F00105900D920197E1F7FB01F0CF2C
:1000C400EFE5EDBFE8E0EEBFC0E6D2E00C947900C6
:1000D400AA93E881E064E7B98BE18A95F1F7369A4F
:1000E400349BFECF349AE4B1F5B10C947E01E8E080
:1000F400EAB9E6E8E0BDE7E4E9B9E0E0E0BDE0E85C
:10010400E8B9E0E4E7B9E3E8E6B9E0E0EABBEBBB71
:10011400899AA0E0DDDF2F01662777270E949A02E3
:10012400DF01CB01ECEBF4E763E070E40E947203BF
:100134000E94F303E0E0EA93A0E6B2E00E94AC0080
:10014400A0E6B2E00E948001A6E4B0E00E9424028E
:10015400E0CFFFCFBA93AA932497E0E0E883E98342
:10016400EA83EFE3EB831A930A93EB85FC85EF3F75
:10017400AFEFFA0739F40E94E801A8E6B0E00E9464
:10018400DB01B1C0EF3FAFE7FA0739F40E94E801A1
:10019400A9E6B0E00E94DB01A6C0AC85AA2362F404
:1001A400E985FA856B857C850E942E020E94ED010B
:1001B4000E94F201EDE2EC93A885A73010F0E6E08E
:1001C400E8871885E12F1150E03039F00E94F901D9
:1001D4000E94FE010E940502F5CF0E940A020E94BD
:1001E400D4020E94ED0110E0E0E0F0E060E87FE37B
:1001F4000E9405020E940A020E94B70388F00E942E
:10020400F9010E9413020E9405021F5F173238F0A1
:100214000E94E801ADE6B0E00E94DB0164C0EACFD1
:10022400103029F40E94F201E0E3EC932FC0E12F97
:100234001150E03059F10E94F9010E94FE01A0E042
:10024400B0E080E09FE30E94D402DF01CB010E9472
:10025400C4010E9405020E940A020E9472030E94C5
:1002640061020E2F0E94F201E02FE05DEC93E02F7B
:10027400F0E00E94F9010E94DF030E949A020E94AA
:1002840024030E941A020E941F02D1CFE885E030A5
:1002940031F10E94F201EEE2EC93E885E150E88747
:1002A400EF5FE9F00E941A020E9413020E94ED011E
:1002B400E985FA856B857C850E9461020E2F0E9478
:1002C400F201E02FE05DEC93E02FF0E00E941A02CF
:1002D4000E94DF030E949A020E941F02DECFAE81B9
:1002E400BF81E0E0EC93198108812D960895AA93CB
:1002F4005D9BFECFE881ECB921960895BA93AA9349
:100304001A93A981BA81ED91A983BA831E2FE03093
:1003140019F0A12FECDFF5CFAAE0E9DF18812396CD
:1003240008950E94F8037B816A81F981E88177FB53
:10033400770F67FD7160972F9E5781F078F09831A1
:1003440090F4AA27BB27882708948795B795A79583
:100354009A95D1F7EA23FB23682305C0E89477270D
:10036400EE27FF2766276F77769508F4606877F99C
:10037400A991B99189919991EA17FB0768077907BF
:1003840097FB08950E94F8030E94E9030E949301D9
:100394000E94EE0319F40E94E40309C0E6F70E94E8
:1003A400E403A0E0B0E080E89FE30E94CD0224963D
:1003B4000895BA93AA93E991F991A991B991CD01BC
:1003C40005900D920020E1F7FC010895EE81FF8174
:1003D400FA93EA930895E987FA876B877C870895EF
:1003E400AE81BF811196AE83BF8311970895AA8110
:1003F400BB818C819D810895EDECFCEC6CEC7DE37C
:100404000E9424030895EA83FB836C837D8308950B
:10041400EA81FB816C817D81A985BA858B859C8568
:100424000895E0E0F0E060E271E40E94240308959E
:10043400A985BA858B859C8508950E94FD030E9439
:10044400CD02C9CF109639F080ED97E00197F1F70E
:10045400A8951197C9F7089530976040704009F046
:1004640070580895552342F4503811F4E0FF04C045
:100474003196691F791F6BF050E8572711F45F9389
:10048400CFC05F3F31F0660F000C57956795752F0D
:1004940008955F9300200AF0CFC0C8C050E8192E19
:1004A4001522880F991F9527550F879550E8072E19
:1004B4000522660F771F7527550F67950895689471
:1004C40001C0E8945F93F2DF703818F07F3F08F4BE
:1004D400A7C056E1571BAAF4519558300EF4593071
:1004E40030F0EFEFFFEF6FEF7FE777F91AC0772770
:1004F4005523B9F0EE0FFF1F661F771F5A95D1F7EA
:1005040010C07727583028F0EF2FF62F672F585058
:10051400F9CF552331F076956795F795E7955A9578
:10052400D1F700200AF441D15F910895689401C085
:10053400E894309760407040B1F0002426F07723AF
:1005440012F4009432D1172E7EE1112032F07A9504
:10055400EE0FFF1F661F111CF9CFEF2FF62F612D31
:100564005F938ADF5F9108954F93AF01FD01DA0134
:10057400AB01BC01CA01402D012C142E4F910895EA
:10058400EA0FFB1F681F0895E095F0956095EF5FF3
:10059400FF4F6F4F08955F9381DF903871F150E8FA
:1005A400152604C05F937ADF903839F1703821F151
:1005B400572F591B2BF112F4D7DFFACF583118F00B
:1005C400AA27BB278827583028F0AB2FB82F8827B5
:1005D4005850F9CF552329F08695B795A7955A9584
:1005E400D9F7502D512572F0CBDF38F46795F79584
:1005F400E795739513F420C0B7DF3EDF5F9108954C
:10060400D8F7FBCFEA1BFB0B680B51F010F40094F6
:10061400BBDF662392F3EE0FFF1F661F7A95CBF7BD
:10062400EE27FF27662777275F910895EFEFFFEF07
:100634006FE77FEF5F910895EFEFFFEF6FE77FE7DD
:100644005F9108955F932ADF703851F3903841F336
:1006540001240894791F23F41CF300203AF3ECCF0F
:100664000F921F932F933F934F931127222799277C
:10067400689FA0018F9F302D410D591F6B9F300D36
:10068400411D591F8E9F27D0BF9F25D06A9F23D01D
:10069400BE9F1DD0AF9F1BD0AE9F110D291F391FC8
:1006A400491F591FE32FF42F652F522F4F913F916C
:1006B4002F911F910F9066232AF0550FEE1FFF1FF5
:1006C400661F02C073954BF2CDDE5F910895100D45
:1006D400211D391F02C0200D311D491F591F0895C6
:1006E4005F93DCDE703821F411200AF49FCFA4CF8D
:1006F400903809F495CF01240894970B1BF4D4F394
:100704000020F3CF792F1F932F933F934F931124FE
:100714001127222733274427552790E2AE17BF0716
:100724008607410730F0AE1BBF0B860B410B0894C4
:1007340001C08894551F221F331F111CAA1FBB1F01
:10074400881F441F9A9551F7F901612D4F913F91EC
:100754002F911F91662332F0550FEE1FFF1F661F66
:100764007A9543F27FDE5F91089599239AF0772377
:1007740042F0971748F029F4AE17BF07860720F018
:1007840031F098948894089598940894089518944E
:10079400889408957723C2F7971798F3A9F7EA176F
:1007A400FB07680788F399F3ECCFF0956095709593
:1007B400E195FF4F6F4F7F4F08956F2F660F660BC4
:1007C400762F0895E881F9816A817B810895A88153
:1007D400B9818A819B810895E883F9836A837B8345
:1007E40008957A936A93FA93EA9308959A938A936D
:1007F400BA93AA930895182E862F612D192E972F38
:10080400712D1B2EBF2FF12D1A2EAE2FE12D089521
:00000001FF
