:0E0000000C9441000C9400000C9400000C9431
:10000E0000000C9400000C9400000C9400000C9462
:10001E0000000C9400000C9400000C9400000C9452
:10002E0000000C9400000C9400000C9400000C9442
:10003E0000000C9400000C9400000C9400000C9432
:10004E0000000C9400001027E80364000A00010071
:10005E00001000011000010001002D4E414E00491C
:10006E004E46000080C001006A02660002006E0269
:10007E0072000000F894EE27ECBBF1E0FBBFEBBF83
:10008E00E5BF8DE0A2E0BB27ED938A95E9F780E00E
:10009E0098E0A0E6ED930197E9F7E4E7F0E08591AB
:1000AE009591009761F0A591B59105901590BF01BE
:1000BE00F00105900D920197E1F7FB01F0CFEFE50E
:1000CE00EDBFE8E0EEBFC0E6D2E00C946E00E0E1DA
:1000DE00EAB9E6E8E0BDE0E0E0BDE7E4E9B9A0E1B9
:1000EE000E941B01E0E6F2E0FA93EA93AAE0B0E088
:1000FE000E948D000E94E900A0E6B2E00E940A0173
:10010E00F1CFFFCF5F9BFECFECB10895BA93AA93C8
:10011E000E9461010E811F8128853985002E012ADA
:10012E00D9F0F0DF5E2F583051F4AE81BF810A173F
:10013E001B0720F4215030400F5F1F4FF2CF5A3073
:10014E0059F03F932F932F5F3F4FE52FAF91BF9104
:10015E00EC9301501040E2CFD901E0E0EC93E8853A
:10016E00F9850E9468012A960895AA93EBB3EF7061
:10017E00AE2FE881E07FEA2BEBBB8DE08A95F1F79D
:10018E00DA9A8DE08A95F1F7DA988DE08A95F1F793
:10019E0077C0AA93A881E9DFE881E295E883A88178
:1001AE00E4DF85E88A95F1F76BC0AA93E881F0E069
:1001BE00E259FD4FE081A981AE0FEBDF59804880F7
:1001CE0022960895A2E00E944901ACE0E2DFA1E090
:1001DE000E944901E0E04E2E5E2E0895AA93A8815A
:1001EE00AA3011F0571448F0E0E0EA934394A42D9E
:1001FE00DCDFA881AA3009F443C05394D89AA881B1
:10020E00C8DFD8983DC0BA93AA931A93A981BA8130
:10021E00ED91A983BA831E2FE03019F0A12FDEDFF6
:10022E00F5CF188123960895AA93EAB3E06FEABB3F
:10023E00D29AD09AD19ADA98D898D9987880E881BB
:10024E00E058E0937002E881E054E0937102A4E17B
:10025E00B0E00E9457010E944F010E944F010E9480
:10026E004F01A0E282DF88EC90E00197F1F7A8E25F
:10027E0090DFA4E08EDFA5E88CDFA6E08ADFA2DFA8
:10028E00219608950E94D000A3E0B0E00C9457018F
:10029E00A0E30E94BC0088EC90E00197F1F708956E
:1002AE00109639F080ED97E00197F1F7A895119728
:1002BE00C9F708955A934A933A932A931A930A9335
:1002CE0008955D814C813B812A81198108810895B1
:00000001FF
