:020000000C945E
:1000020041000C946E000C9400000C9400000C94BF
:1000120000000C9400000C9400000C9400000C945E
:1000220000000C9400000C9400000C9400000C944E
:1000320000000C9400000C9400000C9400000C943E
:1000420000000C9400000C9400000C9400000C942E
:1000520000001027E80364000A00010000100001FC
:1000620010000100000001002D4E414E00494E4695
:10007200000002000400660001006A02680000003D
:10008200F894EE27ECBBF1E0FBBFEBBFE5BF8DE0E0
:10009200A2E0BB27ED938A95E9F780E098E0A0E61D
:1000A200ED930197E9F7E4E7F0E0859195910097E8
:1000B20061F0A591B59105901590BF01F0010590F1
:1000C2000D920197E1F7FB01F0CFEFE5EDBFE8E01C
:1000D200EEBFC0E6D2E00C947300EA93EFEFECB906
:1000E200E9911895E8E1EAB9E6E8E0BDE7E4E9B9A3
:1000F200E0E0E0BDE7BBEFEFE4BBEBB7E064EBBFF2
:10010200E5B7E260E5BF7894E0E6F2E0FA93EA93BD
:10011200AAE0B0E00E94D000A0E6B2E00E94950002
:100122002F0145BAF1CFFFCFBA93AA93B981A88123
:10013200EC918A2FAE2F0E940801A82FEE2311F016
:100142001196F6CFE894EC91ED3211F4689402C066
:10015200EB3209F4119666277727EC918A2FAE2F9E
:100162000E94FF00A82FEE2379F0FB01660F771F94
:10017200660F771F6E0F7F1F660F771FED91FF27A8
:10018200E0536E0F7F1FE9CFFB011EF4E095F0955F
:100192003196229608955F9BFECFECB10895BA93F3
:1001A200AA930E9413010E811F8128853985002E92
:1001B200012AD9F0F0DF5E2F583051F4AE81BF81B1
:1001C2000A171B0720F4215030400F5F1F4FF2CF58
:1001D2005A3059F03F932F932F5F3F4FE52FAF9146
:1001E200BF91EC9301501040E2CFD901E0E0EC93D3
:1001F200E885F9850E941A012A960895AA93E1E0FA
:10020200F991F03310F0FA3308F0EE270895AA932B
:10021200E1E0F991F03229F0F93010F0FE3008F007
:10022200EE2708955A934A933A932A931A930A937C
:1002320008955D814C813B812A811981088108954D
:00000001FF
