:100000000C9449000C9400000C9400000C94000027
:100010000C9400000C9400000C9400000C94000060
:100020000C9400000C9400000C9400000C94000050
:100030000C9400000C9400000C9400000C94000040
:100040000C9400000C9400000C9400000C94000030
:100050000C9400001027E80364000A00010000105F
:1000600000011000010074656D7030203D2000001B
:1000700001002D4E414E00494E46000080C009004F
:100080006002660001007B02700002007F027C00BB
:100090000000F894EE27ECBBF1E0FBBFEBBFE5BF3F
:1000A0008DE0A2E0BB27ED938A95E9F780E098E028
:1000B000A0E6ED930197E9F7EEE7F0E085919591E1
:1000C000009761F0A591B59105901590BF01F001E1
:1000D00005900D920197E1F7FB01F0CFEFE5EDBF41
:1000E000E8E0EEBFC0E6D2E00C948500AA93E88178
:1000F000E064E7B983E08A95F1F7369A349BFECF46
:10010000349AE4B1F5B10C947902A0E10E9448025E
:10011000E0EBE7BBC49AE0E4E7B9E3E8E6B9E0E086
:10012000EABBEBBB0E94D0020E94DE020E94D0021A
:10013000E0936D02F0936E0260936F027093700211
:100140000E94E702A0916902B0916A0280916B025D
:1001500090916C020E941B0569F1B09BFECFE1E714
:10016000EDB90E94E7020E9472035E2EC4985FB848
:10017000779BFECFE0E0EDB9AAE0B0E00E94350346
:10018000C49A0E94E7020E94DE020E94F901A0E6E2
:10019000B2E00E9426020E94E7020E940405E0E00D
:1001A000EA93A1E7B2E00E94DC00A1E7B2E00E947E
:1001B0002602C6CFBBCFFFCFBA93AA932497E0E025
:1001C000E883E983EA83EFE3EB831A930A93EB85F1
:1001D000FC85EF3FAFEFFA0739F40E94F002A2E787
:1001E000B0E00E94C302B1C0EF3FAFE7FA0739F4B5
:1001F0000E94F002A3E7B0E00E94C302A6C0AC8553
:10020000AA2362F4E985FA856B857C850E943F0309
:100210000E94F5020E94FA02EDE2EC93A885A73055
:1002200010F0E6E0E8871885E12F1150E03039F052
:100230000E9401030E9406030E940D03F5CF0E9455
:1002400012030E94E5030E94F50210E0E0E0F0E0F6
:1002500060E87FE30E940D030E9412030E94C8041D
:1002600088F00E9401030E941B030E940D031F5F80
:10027000173238F00E94F002A7E7B0E00E94C302F4
:1002800064C0EACF103029F40E94FA02E0E3EC9354
:100290002FC0E12F1150E03059F10E9401030E945C
:1002A0000603A0E0B0E080E09FE30E94E503DF01E9
:1002B000CB010E94AC020E940D030E9412030E9417
:1002C00083040E9472030E2F0E94FA02E02FE05D69
:1002D000EC93E02FF0E00E9401030E94F0040E94E2
:1002E000AB030E9435040E9422030E942703D1CF52
:1002F000E885E03031F10E94FA02EEE2EC93E88505
:10030000E150E887EF5FE9F00E9422030E941B039F
:100310000E94F502E985FA856B857C850E9472034F
:100320000E2F0E94FA02E02FE05DEC93E02FF0E048
:100330000E9422030E94F0040E94AB030E94270344
:10034000DECFAE81BF81E0E0EC93198108812D966C
:100350000895FFE0FA95F1F70895A4B3AF70A4BB38
:10036000A99AA898F6DFAA9AF4DFA3B3AA98F1DFB6
:10037000AA9AEFDFAA98A7FDF5CF0895A07FAB2B2F
:10038000A5BBAA9A0E94A901AA980E94A901089552
:10039000AA93A998A4B3A76FA4BBB5B3BF70A88153
:1003A000EDDFA881A295EADFA99A0C947902AA9AB6
:1003B0000E94A901E3B3AA980E94A901E07F0895D1
:1003C0000E94A901F4DFAE2FF2DFA998E295EA2B93
:1003D0000895AA930E94AD01E881F0E0E158FD4F35
:1003E000E081A981AE0F0E94C801498078802296E1
:1003F00008950E94AD01A2E00E94C8010E94AD01D3
:10040000ACE00E94C8010E94AD01A1E00E94C801B9
:10041000E0E07E2E4E2E0895AA93EF93FF93A881DD
:100420006894AA3019F0E894461430F07394E0E030
:10043000EA93A72DCEDF36F043948FDFA89AA881E8
:100440000E94C801FF91EF910C947902BA93AA938C
:100450001A93A981BA81ED91A983BA831E2FE03046
:1004600019F0A12FD9DFF5CF188123960895AA2777
:10047000BB271197F1F70895AA93A998A4B3A76F82
:10048000A4BBB5B3BF70A8810E94BE01A99A31C0B8
:10049000AA93AA98A8986880E881E058E09381021E
:1004A000E881E054E09382020E942C030E942C0316
:1004B0000E942C03DCDFA0E2DFDFD9DFA8E20E948C
:1004C0003103A4E00E943103A5E80E943103A4B3E4
:1004D000AF70A4BBA99A0E94E001E53011F0E0E002
:1004E00008C00E94AD01A6E00E94C8010E94F90167
:1004F000E1E0219608950E9409057B816A81F981D6
:10050000E88177FB770F67FD7160972F9E5781F029
:1005100078F0983190F4AA27BB278827089487950C
:10052000B795A7959A95D1F7EA23FB23682305C0D1
:10053000E8947727EE27FF2766276F77769508F4EC
:10054000606877F9A991B99189919991EA17FB07A8
:100550006807790797FB08950E9409050E94FA042D
:100560000E947B020E94FF0419F40E94F50409C056
:10057000E6F70E94F504A0E0B0E080E89FE30E9467
:10058000DE0324960895BA93AA93E991F991A9916B
:10059000B991CD0105900D920020E1F7FC0108957D
:1005A000A0E00E947600662777270E94AB03A8E4AC
:1005B000B1EE8AEF9EE30E9435040895E09369024C
:1005C000F0936A0260936B0270936C020895E0915D
:1005D0006D02F0916E0260916F0270917002089549
:1005E000EE81FF81FA93EA930895E987FA876B8792
:1005F0007C870895AE81BF811196AE83BF8311972A
:100600000895AA81BB818C819D810895EDECFCEC5D
:100610006CEC7DE30E9435040895EA83FB836C83D0
:100620007D830895EA81FB816C817D81A985BA85EE
:100630008B859C850895E0E0F0E060E271E40E9423
:1006400035040895A985BA858B859C8508950E94F7
:100650000E050E94DE03C9CF0E943702A0E30C946E
:100660003C020E94C8010C943702109639F08AEFC0
:1006700090E00197F1F7A8951197C9F70895309781
:100680006040704009F070580895552342F4503886
:1006900011F4E0FF04C03196691F791F6BF050E838
:1006A000572711F45F93CFC05F3F31F0660F000C06
:1006B00057956795752F08955F9300200AF0CFC076
:1006C000C8C050E8192E1522880F991F9527550F7D
:1006D000879550E8072E0522660F771F7527550F5F
:1006E00067950895689401C0E8945F93F2DF7038CD
:1006F00018F07F3F08F4A7C056E1571BAAF45195A4
:1007000058300EF4593030F0EFEFFFEF6FEF7FE726
:1007100077F91AC077275523B9F0EE0FFF1F661F30
:10072000771F5A95D1F710C07727583028F0EF2F50
:10073000F62F672F5850F9CF552331F076956795EE
:10074000F795E7955A95D1F700200AF441D15F91CA
:100750000895689401C0E894309760407040B1F00B
:10076000002426F0772312F4009432D1172E7EE174
:10077000112032F07A95EE0FFF1F661F111CF9CF82
:10078000EF2FF62F612D5F938ADF5F9108954F93CE
:10079000AF01FD01DA01AB01BC01CA01402D012C02
:1007A000142E4F910895EA0FFB1F681F0895E095DE
:1007B000F0956095EF5FFF4F6F4F08955F9381DF76
:1007C000903871F150E8152604C05F937ADF9038B5
:1007D00039F1703821F1572F591B2BF112F4D7DF63
:1007E000FACF583118F0AA27BB278827583028F0AD
:1007F000AB2FB82F88275850F9CF552329F086956D
:10080000B795A7955A95D9F7502D512572F0CBDFA2
:1008100038F46795F795E795739513F420C0B7DF23
:100820003EDF5F910895D8F7FBCFEA1BFB0B680B07
:1008300051F010F40094BBDF662392F3EE0FFF1F1C
:10084000661F7A95CBF7EE27FF27662777275F91FC
:100850000895EFEFFFEF6FE77FEF5F910895EFEF00
:10086000FFEF6FE77FE75F9108955F932ADF7038AE
:1008700051F3903841F301240894791F23F41CF3B9
:1008800000203AF3ECCF0F921F932F933F934F9397
:10089000112722279927689FA0018F9F302D410D96
:1008A000591F6B9F300D411D591F8E9F27D0BF9F31
:1008B00025D06A9F23D0BE9F1DD0AF9F1BD0AE9F77
:1008C000110D291F391F491F591FE32FF42F652FC1
:1008D000522F4F913F912F911F910F9066232AF035
:1008E000550FEE1FFF1F661F02C073954BF2CDDE42
:1008F0005F910895100D211D391F02C0200D311D7B
:10090000491F591F08955F93DCDE703821F41120D0
:100910000AF49FCFA4CF903809F495CF012408940E
:10092000970B1BF4D4F30020F3CF792F1F932F9351
:100930003F934F931124112722273327442755270C
:1009400090E2AE17BF078607410730F0AE1BBF0B22
:10095000860B410B089401C08894551F221F331F3A
:10096000111CAA1FBB1F881F441F9A9551F7F9013C
:10097000612D4F913F912F911F91662332F0550FBA
:10098000EE1FFF1F661F7A9543F27FDE5F91089589
:1009900099239AF0772342F0971748F029F4AE177D
:1009A000BF07860720F031F09894889408959894B2
:1009B000089408951894889408957723C2F7971798
:1009C00098F3A9F7EA17FB07680788F399F3ECCFC8
:1009D000F09560957095E195FF4F6F4F7F4F0895AB
:1009E0006F2F660F660B762F0895E881F9816A8173
:1009F0007B810895A881B9818A819B810895E883CC
:100A0000F9836A837B8308957A936A93FA93EA93CE
:100A100008959A938A93BA93AA930895182E862FCD
:100A2000612D192E972F712D1B2EBF2FF12D1A2EF0
:100A3000AE2FE12D0895EA17FB076807790708959F
:00000001FF
